:020000040000FA
:206800001035040000000000D823040001000000D823040001000000D8230400010000002F
:20682000D823040001000000D823040001000000D823040001000000D82304000100000058
:20684000D823040001000000C215040001000000D823040001000000D8230400010000005C
:20686000D823040001000000BA05040001000000D823040001000000D82304000100000054
:20688000D823040001000000D823040001000000D823040001000000D823040001000000F8
:2068A000D823040001000000D823040001000000D823040001000000960504000100000038
:2068C000D823040001000000D823040001000000D823040001000000D823040001000000B8
:2068E000D8230400010000006800040001000000D823040001000000D8230400010000002B
:20690000D823040001000000D823040001000000D823040001000000D82304000100000077
:20692000D823040001000000D823040001000000D823040001000000D82304000100000057
:20694000D823040001000000D823040001000000D823040001000000D82304000100000037
:20696000D823040001000000D823040001000000D823040001000000D82304000100000017
:20698000D823040001000000D823040001000000D823040001000000D823040001000000F7
:2069A000D823040001000000D823040001000000D823040001000000D823040001000000D7
:2069C000D823040001000000D823040001000000D823040001000000D823040001000000B7
:2069E000D823040001000000D823040001000000D823040001000000D82304000100000097
:206A0000D823040001000000D823040001000000D823040001000000D82304000100000076
:206A20000FA020008EFE23000E018800000000000C00070060F22D00010020001100070076
:206A4000000020000000E00002003200000002000000000024A80200000000000040DA0018
:206A60000000FE004440A900C0B820000000E0000300320000002000A00188004440A800C9
:206A80000000060091018800800078000000EB0015003700E280400032A0B4009101BA0033
:206AA000E280400032A0B4009102BA00E280400032A0B4000002EB00472BDE00F507B2004E
:206AC000602CE10004003A000059EB008301E900FDFF3E00040037006128E1000100320048
:206AE0000082EB00040007001101BA000200E000E8FF3A00000006003159BA008301E90098
:206B00000C0032002159BA008301E900080032000400E00003003A00E280400032A0B40013
:206B2000F5FF370011D9BA008301E900FAFF3A008100E800E180400032A0B4000000060050
:206B400062D10400000000006AD2040000000000E4D3040000000000DED40400000000004D
:206B60003AA404000000000078A404000000000062A3040000000000BEA6040000000000A2
:206B8000CAA60400000000005AA704000000000078A5040000000000A8A40400000000000B
:206BA000C6A704000000000082A704000000000038A504000000000070AC04000000000036
:206BC000AAA304000000000086A30400000000001E8A040000000000EE8904000000000010
:206BE0000A8A040000000000148A0400000000004E700400000000003C6D040000000000EC
:206C0000E0890400000000005E8A040000000000468A040000000000046D040000000000D2
:206C2000F66C040000000000E86C040000000000708A0400000000002E6D040000000000F9
:206C40007E8A040000000000B876040000000000D8780400000000009C7D04000000000085
:206C6000F87A0400000000003880040000000000B8170400010000000ADF04000000000021
:206C8000B61A040001000000D21A0400010000001E1A0400010000008AB6040000000000AD
:206CA000E4B404000000000038EE04000000000048EE04000000000092210400010000001C
:206CC0008EC00400000000009CC0040000000000B2C004000000000008C1040000000000BF
:206CE000C0C104000000000012C2040000000000C0D604000000000032D704000000000090
:206D0000A4D704000000000016D8040000000000AED60400000000009039040000000000AD
:206D2000B8FA040000000000C4FA0400000000001ACE04000000000028CE040000000000F5
:206D400036CE040000000000839F68000100E00002003D0060001000E08018000300E000B6
:206D600002003D0060011100E0811900860007004F00E00002003B0060001000E080180007
:206D8000000006000001BE006A0007000470A70003F0A10003F8A30013003A006509B10004
:206DA00010003200090035006928E1000200350001002800000005000000400081804800F3
:206DC0008502E900FCFF3A0000000600F88F4200050035008100D1000080D3008502E800F1
:206DE000FCFF3A00000006008000EB0000000500889FBE008A9FBE00010578000100E000BD
:206E00000400350008003C000000E000200032000500370060001000E080180002003B0062
:206E200001F02C001A0037000004BE006011B8006B0920000982CF00020039000882CF0077
:206E40000441B000694252000E00320008003B0082817100610164008904D1000884D300C6
:206E60008B05E8000442E800F9FF3A00050037000804440089844C008B05E9000442E900AD
:206E8000FBFF3A00050007000AF0A70001F0A0004F05BE004F04BE000000060081002000B6
:206EA000618055000B003D000B00200061FE2F000100E1001D00340082817100610164002E
:206EC0008904D1000884D3000000E800FAFF3A0071002000610064000300700002006000AF
:206EE0000900320061044400E0844C000988A500050032008B05E8006808E10002003A008C
:206F00008904D1000884D300F20F20000258E10005003D00C75DDD00F907B20089807500E5
:206F200008007800000006000BF827008B00780000000500C70ADE00F107B200F50FB2008A
:206F400008003200E1CF4200020032000170A00024000500810F7000010032000408050053
:206F600044000500810F700002003A00140005008502E9000000400081C04800FCFF3B0004
:206F80000170A000240005006022B800060220000000D0008180D2000482D2008582D20081
:206FA0000000A0000202520083825A00030031000202420083824A000000A1000603E90020
:206FC000F3FF3A00000006008001EB000200370061F079008301E800828F5100FCFF3A000D
:206FE000000006008001EB0002003700817178008301E800828F5100FCFF3A000000060073
:207000008001780000017800010037000201E8001204E000FDFF3A003140780000597800F5
:207020000004E000FCFF3A000300780000000600800178000001780031407800005978008A
:207040000004E000FCFF3A000300780000000600800078003004E000FEFF3A000100500002
:207060000000E900000006000000FA005CF7020000000000415E24000000EB00B0009800DC
:20708000415E24000000EB00A0009800415E24000040EB00B04098000000EB0060308A008F
:2070A000E16024000040EB0080487800911780000020200000807000901788000080FA00FF
:2070C000000006000400FA00000F78001E007800100798001E009000E10F50001F003200A1
:2070E0001E009000E10F5000760039001E009000E20F5000040032001E009000E30F5000DE
:207100004900320071003700415E240000112000B000980000112000B00C8800415E2400D8
:207120000000EB00A0009800405E2400204090000004E0000200320066000700630037005B
:20714000415E24000040EB00B0409800415E2400F00F2000800878005C003700405E240082
:20716000B0009000F0102000808F500011003600E0602400104078000004E0000D003A00B2
:20718000039923000001EB00C112200010002000080102000100000060308A00415E240038
:2071A0000000EB00B00098000000EB00B00C880046003700405E2400B0009000F0102000CE
:2071C000808F500041003E00E0602400104078000004E0003D003200603082000000E00060
:2071E0000500320060308200F0010200010000000000EB0060308A00E16024000040EB00BD
:2072000080487800415E240000112000B000980000112000B00C8800415E2400200020007A
:207220008008780029003700405E2400200090008000E800405E240021009800405E2400D7
:20724000A0009000F0182000808F500011003600405E2400B0009000F0102000808F5000AF
:207260000C003E00415E24000000EB00A0009800405E2400300090008000E800405E240032
:2072800031009800405E240030009000B00C88000E003700405E2400B0009000F0102000F8
:2072A000808F500009003600415E240000112000B0009800415E24002000200080087800F1
:2072C00002003700F0FF2000B00C88000080FA00000006000000FA00405E2400100078005E
:2072E000E30F50000C003200B10C8000F0FF2000808F500008003200415E240010C0B300E3
:20730000B0409800415E240010002000800878000000EB00B00C88000080FA000000060043
:207320000200FA00000F78000000EB0060308A00E160240010C0B300804878000080FA0023
:20734000000006000400FA00000F78001E007800100798001E009000E30F50005B003200E0
:207360001E009000E30F500007003E001E009000E10F5000330032001E009000E10F500097
:2073800074003E00950037001E009000E50F5000D60032001E009000E50F5000B100390099
:2073A0001E009000E60F5000F20032001E009000E70F5000010032000F013700C842A80096
:2073C00000000000000000000000000000000000CA42A800000000000000000000000000F9
:2073E0000000000000000000C822A80000000000000000000000000000000000CA22A80067
:207400000000000000000000000000000000000000000000C902A8000000000000000000F9
:207420000000000000000000CB02A8000000000000000000000000000000000000000000D7
:20744000ED003700C842A80000000000000000000000000000000000CA42A80000000000A2
:2074600000000000000000000000000000000000C822A90000000000000000000000000079
:2074800000000000CA22A9000000000000000000000000000000000000000000C902A800E4
:2074A00000000000000000000000000000000000CB02A80000000000000000000000000057
:2074C0000000000000000000CB003700C842A90000000000000000000000000000000000F7
:2074E000CA42A9000000000000000000000000000000000000000000C822A8000000000045
:20750000000000000000000000000000CA22A80000000000000000000000000000000000D7
:2075200000000000C902A80000000000000000000000000000000000CB02A8000000000063
:2075400000000000000000000000000000000000A9003700C842A800000000000000000099
:207560000000000000000000CA42A800000000000000000000000000000000000000000057
:20758000C822A90000000000000000000000000000000000CA22A9000000000000000000C3
:2075A000000000000000000000000000C902A9000000000000000000000000000000000057
:2075C000CB02A900000000000000000000000000000000000000000087003700C842A800C5
:2075E00000000000000000000000000000000000CA42A800000000000000000000000000D7
:207600000000000000000000C822A80000000000000000000000000000000000CA22A80044
:207620000000000000000000000000000000000000000000C902A9000000000000000000D6
:207640000000000000000000CB02A9000000000000000000000000000000000000000000B4
:2076600065003700C842A90000000000000000000000000000000000CA42A9000000000006
:2076800000000000000000000000000000000000C822A80000000000000000000000000058
:2076A00000000000CA22A8000000000000000000000000000000000000000000C902A900C2
:2076C00000000000000000000000000000000000CB02A90000000000000000000000000034
:2076E000000000000000000043003700C842A900000000000000000000000000000000005D
:20770000CA42A9000000000000000000000000000000000000000000C822A9000000000021
:20772000000000000000000000000000CA22A90000000000000000000000000000000000B4
:2077400000000000C902A80000000000000000000000000000000000CB02A8000000000041
:207760000000000000000000000000000000000021003700C842A9000000000000000000FE
:207780000000000000000000CA42A900000000000000000000000000000000000000000034
:2077A000C822A90000000000000000000000000000000000CA22A9000000000000000000A1
:2077C000000000000000000000000000C902A9000000000000000000000000000000000035
:2077E000CB02A90000000000000000000000000000000000000000000080FA000000060093
:20780000FFFFFF00FFFFFF00FFFFFF00FFFFFF00FFFFFF00FFFFFF00FFFFFF00FFFFFF0080
:20782000FFFFFF00FFFFFF00FFFFFF00FFFFFF00FFFFFF00FFFFFF00FFFFFF00FFFFFF0060
:20784000FFFFFF00FFFFFF00FFFFFF00FFFFFF00FFFFFF00FFFFFF00FFFFFF00FFFFFF0040
:20786000FFFFFF00FFFFFF00FFFFFF00FFFFFF00FFFFFF00FFFFFF00FFFFFF00FFFFFF0020
:20C10000310000005379000073740000656D0000486F0000737400002F4800006F73000072
:20C120007450000072650000736500006E74000000460000697200006D77000061720000D2
:20C14000654400006F7700006E6C00006F610000642F00004D430000555000007265000007
:20C16000736500006E74000000460000697200006D77000061720000654400006F7700009E
:20C180006E6C00006F610000642F0000536F00007572000063650000006600007700000014
:20C1A00046690000726D00007761000072650000446F0000776E00006C6F0000616400000A
:20C1C0002F460000697200006D770000617200006545000078740000006800007474000072
:20C1E000703A00002F2F00007570000064610000746500002E6D00006F6E0000697400005F
:20C200006F72000061750000646900006F2E0000636F00006D2F00006765000074550000FA
:20C22000524C00002E700000687000003F650000713D00006E650000775600006F69000020
:20C24000636900006E670000266D00006F640000653D00006E6F0000726D0000616C0000AC
:20C2600000460000697200006D77000061720000654400006F7700006E6C00006F610000AD
:20C28000642F000046690000726D00007761000072650000496E0000646500007850000086
:20C2A000616700006500000030000000666900006C6500003A2F00002F55000053420000FF
:20C2C0002F3000002F4D00004355000042430000442E0000667700000032000000360000AF
:20C2E000333200000053000079730000746500006D4800006F730000742F0000486F0000D0
:20C30000737400005665000072730000696F00006E000000695000006F6400004163000020
:20C32000634900006E6600006F2F000041630000634800007756000065720000732F00004A
:20C34000526500007600000034000000695000006F64000041630000634900006E660000CC
:20C360006F2F000041630000634800007756000065720000732F00004D6100006A5600001C
:20C380006572000000690000506F00006441000063630000496E0000666F00002F41000037
:20C3A000636300004877000056650000727300002F4D0000696E00005665000072000000D8
:20C3C000695000006F64000041630000634900006E6600006F2F00004163000063460000C2
:20C3E0007756000065720000732F0000526500007600000036000000695000006F64000008
:20C4000041630000634900006E6600006F2F00004163000063460000775600006572000069
:20C42000732F00004D6100006A560000657200000033000000690000506F00006441000015
:20C4400063630000496E0000666F00002F41000063630000467700005665000072730000F7
:20C460002F4D0000696E00005665000072000000413100003030000000690000506F000042
:20C480006441000063630000496E0000666F00002F4D00006F640000656C00004E750000C2
:20C4A0006D6200006572000000410000697200007374000072650000616D000020410000CD
:20C4C000313000003020000000690000506F00006441000063630000496E0000666F00008C
:20C4E0002F4D00006F640000656C00004E6100006D650000004D00006F6E00006974000094
:20C500006F7200002041000075640000696F000000690000506F0000644100006363000095
:20C52000496E0000666F00002F4D0000616E000075660000616300007475000072650000C5
:20C54000720000004469000067690000746100006C000000497000006F6400002F410000AF
:20C5600075640000696F000000490000706F0000642F0000536900006D7000006C650000E5
:20C58000526500006D6F000074650000436C0000616900006D000000497000006F640000BD
:20C5A0002F49000073530000696D0000706C0000654D00006F6400006500000049700000E8
:20C5C0006F6400002F690000506F0000644100006363000043610000706100006269000086
:20C5E0006C690000747900002F5200004643000065720000744300006C610000696D00003E
:20C6000000490000706F0000642F0000695000006F640000416300006343000061700000B8
:20C6200061620000696C000069740000792F000056690000646500006F4F000075740000AE
:20C640004163000063650000737300006F720000794300006C610000696D000000490000FF
:20C66000706F0000642F0000695000006F64000041630000634300006170000061620000DE
:20C68000696C000069740000792F00004C6900006E6500006F750000744100006363000059
:20C6A00065730000736F000072790000436C0000616900006D0000006F66000066000000B4
:20C6C000497000006F6400002F690000506F00006441000063630000436100007061000097
:20C6E000626900006C690000747900002F4500006E610000626C0000655600006964000014
:20C70000656F00004F7500007453000065740000746900006E67000000490000706F000007
:20C72000642F0000526500006D6F000074650000554900004865000061640000556E000027
:20C7400069740000436C0000616900006D000000464100004C5300004500000049700000F2
:20C760006F6400002F4300006F6D00006D4900006E7400006572000066610000636500009A
:20C78000732F00005365000072690000616C0000005400005255000045000000497000009E
:20C7A0006F6400002F4300006F6D00006D4900006E7400006572000066610000636500005A
:20C7C000732F0000555300004200000041690000725000006C6100007954000065730000EF
:20C7E000745200006F75000074650000720000004E650000747700006F7200006B690000F1
:20C800006E6700002F4400007276000043660000672F0000576C0000616E0000436600006E
:20C82000672F0000507200006F660000696C0000653100002F5300005349000044000000FE
:20C840004E4F00004E450000004E000065740000776F0000726B0000696E0000672F000051
:20C860004472000076430000666700002F5700006C6100006E430000666700002F5000002C
:20C88000726F0000666900006C650000312F0000536500006375000072690000747900005F
:20C8A000004300006F6D00006D7500006E69000063610000746900006F6E0000536500006A
:20C8C00074740000696E0000677300002F530000686500006C6C0000004E00006574000071
:20C8E000776F0000726B0000696E0000672F00004472000076430000666700002F57000046
:20C900006C6100006E430000666700002F410000637400006976000065500000726F000010
:20C92000666900006C650000004E000065740000776F0000726B0000696E0000672F000000
:20C940004A420000434F00004E4E000045430000542F0000456E0000616200006C650000CB
:20C96000640000007370000064690000660000004F7500007470000075740000506C0000F0
:20C98000756700002F4900006E7400006572000066610000636500004E6100006D6500007A
:20C9A000006C0000696E0000656F0000757400000068000070000000636E00006547000022
:20C9C000726F0000757000002F4800004F530000544D000041430000004E0000657400002C
:20C9E000776F0000726B0000696E0000672F00004472000076430000666700002F57000045
:20CA00006C6100006E430000666700002F4300006F7500006E74000072790000436F0000F6
:20CA2000646500000000000001570000505300005F4300004647000001500000425F000011
:20CA4000434600004701000050420000430300000101000002030000010100000103000020
:20CA6000010100000404000001010000020400000101000001040000010100000704000090
:20CA800001010000050400000101000004010000010100000201000001010000010100007B
:20CAA00001010000050100000101000004010000010100000800000000000000000000005D
:20CAC000000000000000000000000000000000000000000000000000000000000000000056
:20CAE000000000000000000000000000000000000000000000000000000000000000000036
:20CB0000000000000000000000000000000000000000000000000000000000000000000015
:20CB20000000000000000000000000000000000000000000000000000000000000000000F5
:20CB40000000000000000000000000000000000000000000000000000000000000000000D5
:20CB60000000000000000000000000000000000000000000000000000000000000000000B5
:20CB8000000000000000000000000000000000000000000000000000000000000000000095
:20CBA000000000000000000000000000000000000000000000000000000000000000000075
:20CBC000000000000000000000000000000000000000000000000000000000000000000055
:20CBE000000000000000000000000000000000000000000000000000000000000000000035
:20CC0000000000000000000000000000000000000000000000000000000000000000000014
:20CC20000000000000000000000000000000000000000000000000000000000000000000F4
:20CC40000000000000000000000000000000000000000000000000000000000000000000D4
:20CC60000000000000000000000000000000000000000000000000000000000000000000B4
:20CC8000000000000000000000000000000000000000000000000000000000000000000094
:20CCA000000000000000000000000000000000000000000000000000000000000000000074
:20CCC000000000000000000000000000000000000000000000000000000000000000000054
:20CCE000000000000000000000000000000000000000000000000000000000000000000034
:20CD0000000000000000000000000000000000000000000000000000000000000000000013
:20CD20000000000000000000000000000000000000000000000000000000000000000000F3
:20CD40000000000000000000000000000000000000000000000000000000000000000000D3
:20CD60000000000000000000000000000000000000000000000000000000000000000000B3
:20CD8000000000000000000000000000000000000000000000000000000000000000000093
:20CDA000000000000000000000000000000000000000000000000000000000000000000073
:20CDC000000000000000000000000000000000000000000000000000000000000000000053
:20CDE000000000000000000000000000000000000000000000000000000000000000000033
:20CE0000000000000000000000000000000000000000000000000000000000000000000012
:20CE20000000000000000000000000000000000000000000000000000000000000000000F2
:20CE40000000000000000000000000000000000000000000000000000000000000000000D2
:20CE60000000000000000000000000000000000000000000000000000000000000000000B2
:20CE8000000000000000000000000000000000000000000000000000000000000000000092
:20CEA000000000000000000000000000000000000000000000000000000000002110000041
:20CEC000422000006330000084400000A5500000C6600000E77000000881000029910000E4
:20CEE0004AA100006BB100008CC10000ADD10000CEE10000EFF1000031120000100200007C
:20CF00007332000052220000B552000094420000F7720000D6620000399300001883000013
:20CF20007BB300005AA30000BDD300009CC30000FFF30000DEE30000622400004334000027
:20CF40002004000001140000E6640000C7740000A4440000855400006AA500004BB5000043
:20CF60002885000009950000EEE50000CFF50000ACC500008DD500005336000072260000DB
:20CF80001116000030060000D7760000F666000095560000B44600005BB700007AA7000073
:20CFA0001997000038870000DFF70000FEE700009DD70000BCC70000C4480000E558000007
:20CFC00086680000A778000040080000611800000228000023380000CCC90000EDD90000A3
:20CFE0008EE90000AFF9000048890000699900000AA900002BB90000F55A0000D44A00003B
:20D00000B77A0000966A0000711A0000500A0000333A0000122A0000FDDB0000DCCB0000D2
:20D02000BFFB00009EEB0000799B0000588B00003BBB00001AAB0000A66C0000877C0000E6
:20D04000E44C0000C55C0000222C0000033C0000600C0000411C0000AEED00008FFD000002
:20D06000ECCD0000CDDD00002AAD00000BBD0000688D0000499D0000977E0000B66E00009A
:20D08000D55E0000F44E0000133E0000322E0000511E0000700E00009FFF0000BEEF000032
:20D0A000DDDF0000FCCF00001BBF00003AAF0000599F0000788F000088910000A9810000E4
:20D0C000CAB10000EBA100000CD100002DC100004EF100006FE1000080100000A1000000BE
:20D0E000C2300000E320000004500000254000004670000067600000B9830000989300009E
:20D10000FBA30000DAB300003DC300001CD300007FE300005EF30000B102000090120000ED
:20D12000F3220000D232000035420000145200007762000056720000EAB50000CBA5000049
:20D14000A8950000898500006EF500004FE500002CD500000DC50000E2340000C32400001D
:20D16000A01400008104000066740000476400002454000005440000DBA70000FAB70000FD
:20D1800099870000B89700005FE700007EF700001DC700003CD70000D3260000F23600004D
:20D1A00091060000B0160000576600007676000015460000345600004CD900006DC9000029
:20D1C0000EF900002FE90000C8990000E98900008AB90000ABA9000044580000654800007D
:20D1E0000678000027680000C0180000E108000082380000A32800007DCB00005CDB00005D
:20D200003FEB00001EFB0000F98B0000D89B0000BBAB00009ABB0000754A0000545A0000AC
:20D22000376A0000167A0000F10A0000D01A0000B32A0000923A00002EFD00000FED000008
:20D240006CDD00004DCD0000AABD00008BAD0000E89D0000C98D0000267C0000076C0000DC
:20D26000645C0000454C0000A23C0000832C0000E01C0000C10C00001FEF00003EFF0000BC
:20D280005DCF00007CDF00009BAF0000BABF0000D98F0000F89F0000176E0000367E00000C
:20D2A000554E0000745E0000932E0000B23E0000D10E0000F01E00004E65000074770000BD
:20D2C0006F7200006B6900006E6700002F49000070430000666700002F4300006F6E00007D
:20D2E00066690000673400002F4A0000424300004F4E00004E4500004354000000300000CF
:20D30000004E000065740000776F0000726B0000696E0000672F0000447200007643000047
:20D32000666700002F5700006C6100006E430000666700002F500000726F00006669000020
:20D340006C650000342F000043680000616E00006E6500006C00000031390000322E000016
:20D3600031360000382E0000312E0000310000004E650000747700006F7200006B690000FD
:20D380006E6700002F49000070430000666700002F4300006F6E0000666900006734000007
:20D3A0002F4900005000000031390000322E000031360000382E0000312E0000313000004E
:20D3C000300000004E650000747700006F7200006B6900006E6700002F49000070430000CA
:20D3E000666700002F4300006F6E000066690000673400002F440000484300005043000016
:20D400006C690000656E000074000000464100004C530000450000004E65000074770000E7
:20D420006F7200006B6900006E6700002F4400007276000043660000672F0000576C000005
:20D44000616E000043660000672F0000507200006F660000696C0000653400002F49000041
:20D460004253000053000000456E0000616200006C65000064000000505300004D2F0000FA
:20D480004A42000047720000656500006E0000004469000073610000626C000065640000F7
:20D4A00000500000534D00002F44000065650000705300006C650000657000004D6F00001A
:20D4C00064650000006300006E650000477200006F750000702F0000576100006B65000089
:20D4E0004F6E00004F6E00006C79000041690000727000006C61000079000000E202000017
:20D500000203000090010000E20200000103000090010000CA0200000C03000064000000BD
:20D520000000000000000000000000000000000000000000000000000000000000000000EB
:20D54000000000000000000000000000000000009CC00000B2C0000008C10000C0C10000B3
:20D5600012C20000266300006F7500006E74000072790000636F0000646500003D000000C5
:20D58000266D000061630000416400006472000065730000733D0000002600007072000029
:20D5A0006F640000496400003D00000041310000303000000000000098020000109800009A
:20D5C0000389000098040000C09800000500000098070000F09800000840000098080000B7
:20D5E000C098000002000000980200001098000002200000980200003098000002400000C9
:20D6000098020000500000007400000000740000033300007404000033740000052B0000B3
:20D62000740600000774000007160000740800006974000009FD0000741B00000A7400006C
:20D640001C4A0000741C00000A7400001D400000741E00000C0000000B1000001317000016
:20D660001A1E0000222600002A2E0000323600003B3F0000434700004B4F00005357000022
:20D680005B5F000062640000666900006D710000767B00007E80000000000000000000006E
:20D6A00000000000000000000000000000000000000000000000000000000000000000006A
:20D6C00000000000000000000000000040660000696C0000653A00002F2F0000555300002A
:20D6E000422F0000302F00004D43000055420000434400002E6600007700000062D100006E
:20D700006AD20000E4D30000DED400003600000033000000320000000200FA00101A820021
:20D72000000F78001E007800E20F5000150032001E007800E20F500007003E001E00780092
:20D740000000E0000B0032001E007800E10F50000A003200110037001E007800E30F50007A
:20D760000A0032001E007800E50F5000090032000A0037007E05070009003700EE08070050
:20D78000070037009A07070005003700380A07000300370086060700010037007405070099
:20D7A0000080FA00000006000000FA00101A82000000E00002003A006D050700180037005F
:20D7C000101A8200E40F500002003A007806070013003700101A8200E50F500002003A0023
:20D7E000230A07000E003700101A8200E30F500002003A007E07070009003700101A82000E
:20D80000E20F500002003A00CB08070004003700101A8200E10F500001003A0054050700EF
:20D820000080FA00000006000000FA00D01882000000E00005003200D0188200F001020090
:20D84000010000000000EB00D0188A00CA02A9003E20020001000000DA22A900DCF402001D
:20D8600000000000908A020000000000CAF4020000000000C9E2A900000000000000000078
:20D8800000000000CBE2A9002EC20200000000000080FB000080FA00000006000000FA004B
:20D8A00040002000101A8A00D01882000000E00005003200D0188200F00102000100000075
:20D8C0000000EB00D0188A00DCF402000000000048F5020000000000908A020000000000BE
:20D8E00070012000988A020000000000CAF4020000000000DA22A8003E20020001000000AE
:20D90000CA02A90000C30200000000000080FB000080FA00000006000000FA0000003700A1
:20D92000601982000000E000FDFF3A00BEFF07000004E00001003200F9FF37000080FA0052
:20D94000000006000000FA00CE080200010000005133240010C0B30080487800E13324004B
:20D9600040C1B3008048780040002000D0198A00E0332400104078000080FB004103200002
:20D98000A4A102000000000040002000101A8A00101A820081032000A4A102000000000095
:20D9A000400020007A09020001000000B8B50200000000005220020001000000DA22A800F9
:20D9C00052200200010000000000FE00FFFF37000200FA00000F78006133240010C0B300E1
:20D9E000804878000080FA00000006000200FA00000F7800B132240010C0B300804878001A
:20DA00000080FA00000006000200FA00000F78003607020001000000820F0200010000002F
:20DA20000004E0000400320050002000FC2102000100000007003700303324008040EB00CC
:20DA4000014878000000EB00E0198A00A4020200010000000080FA00000006000200FA0072
:20DA6000000F7800A0002000FC210200010000000080FA00000006000200FA00000F78003C
:20DA80000040EB005AA7020000000000C8080200010000000080FA00000006000000FA000B
:20DAA000E0332400104078000004E0004C003200E0332400104078008040E900E033240026
:20DAC00001487800101A8200E40F500003003200101A8200E50F500007003A006A3902008B
:20DAE00000000000E0332400104078008A0A0200010000003A003700101A8200E30F500031
:20DB000011003A00C8E70200000000000004E0000D0032006A39020000000000E03324000A
:20DB2000104078008A0A020001000000E0332400104078004A1B02000100000000C8020055
:20DB40000000000026003700101A8200E20F500010003A002E0B0200010000000004E00011
:20DB60000C0032006A39020000000000E033240010407800EE1A02000100000000C80200EE
:20DB8000000000009133240010C0B3008048780013003700101A8200E10F500010003A005A
:20DBA000E6130200010000000004E0000C0032006A39020000000000E033240010407800A3
:20DBC0008A0A020001000000E0332400104078003C1C02000100000000C80200000000008A
:20DBE000E0332400104078003C1C020001000000CE13020001000000E033240010407800E8
:20DC00000004E00005003A00CE080200010000005133240010C0B300804878000080FA0023
:20DC2000000006000000FA00E0332400104078000004E00005003A00FE08020001000000B9
:20DC4000513324000040EB0080487800E033240010407800FE4F50005B003E00101A8200D0
:20DC6000E40F500003003200101A8200E50F50000C003A00E0332400104078008040E8004F
:20DC8000E0332400014878006A39020000000000E0332400104078008A0A02000100000051
:20DCA00049003700101A8200E30F500016003A00C8E70200000000000004E00012003200CD
:20DCC000E0332400104078008040E800E0332400014878006A39020000000000E0332400C9
:20DCE000104078008A0A020001000000E0332400104078004A1B02000100000000C8020094
:20DD00000000000030003700101A8200E20F500015003A002E0B0200010000000004E00040
:20DD200011003200E0332400104078008040E800E0332400014878006A390200000000005C
:20DD4000E033240010407800EE1A02000100000000C80200000000009133240010C0B30084
:20DD60008048780018003700101A8200E10F500015003A00E6130200010000000004E000F9
:20DD800011003200E0332400104078008040E800E0332400014878006A39020000000000FC
:20DDA000E0332400104078008A0A020001000000E0332400104078003C1C02000100000073
:20DDC00000C8020000000000E0332400104078003C1C020001000000CE130200010000003B
:20DDE0000080FA00000006000200FA00B032240010407800E14F50000F003A00B132240009
:20DE00000040EB0080487800BC08020001000000101A82007A09020001000000CE080200C6
:20DE2000010000005133240010C0B3008048780040002000B10007009C17020001000000A8
:20DE40000004E0000200320058B40200000000004033240010407800E14F500005003A007E
:20DE6000413324000040EB0080487800A2210200010000002052240010407800E14F5000FB
:20DE80000A003A004809020001000000FE08020001000000513324000040EB0080487800CE
:20DEA000215224000040EB0080487800E0522400104078000004E00023003200E1522400B2
:20DEC0000040EB0080487800560902000100000080407800E051240001487800E0512400D2
:20DEE000104078000004E0000A00320090322400104078000004E000060032009132240089
:20DF00000040EB008048780066090200010000000D003700E0512400104078000004E000DF
:20DF200009003A0090322400104078000004E00005003A009132240010C0B3008048780023
:20DF400070090200010000009CE70200000000000000E000050032009CE702000000000024
:20DF6000E10F50000100320087080700A052240010407800E14F50000C003A00D4E7020037
:20DF8000000000000004E00008003200101A8200E30F500005003A00401F20006308070045
:20DFA000A15224000040EB008048780020002000E4170200010000000004E0001400320077
:20DFC00030002000021802000100000060198200EE0F50000C00320060198200F10F500003
:20DFE0000900320060198200F20F50000600320060198200EF0F50000300320060198200E9
:20E00000F00F500002003A00000620003B000700A032240010407800E14F500006003A008F
:20E02000A03224008040EB00014878000000EB0030198A008E000700B00802000100000070
:20E04000004F780080322400104078009E4F500010003200101A8200E50F50000B003A00A7
:20E060001E04E00005003200803224001E487800F00020002100070004003700803224006A
:20E080001E487800000120001C000700803224001E4878000080FA00000006000200FA002E
:20E0A000000F78009E00780080342400183802000000000074190200010000008034240031
:20E0C00058EE020000000000500920000B0007000080FA00000006000000FA00E0A128004A
:20E0E000401C8A000000EB0060198A00D0210200010000000080FA00000006000600FA00D8
:20E10000000F78001E00E00057003200DAB4020000000000E64F500006003A00200020005C
:20E120009E0F100003003200110020009E8F10004D003A00601982006101B8001207980032
:20E140002307980020012000010020001E019000AE019000800F5100818F590042003E00E4
:20E160001E009000AE0090000060010021003700230037003C003700240037002600370075
:20E18000280037002A00370037003700360037002A003700320037002B0037002D00370054
:20E1A000310037000400370006003700080037000A0037000C0037001E0078001703070005
:20E1C000290037001E00780024040700260037001E00780012080700230037001E00780016
:20E1E00017050700200037001E007800740607001D0037001E007800D40907001A0037006F
:20E200001E007800210A0700170037001E007800740A0700140037001E007800F20A0700E9
:20E22000110037001E007800A30B07000E0037001E007800BB0B07000B0037001E007800CB
:20E240001E000700080037001E0078001B010700050037001E007800E401070002003700AA
:20E260001E007800310007000080FA0000000600AE00FA009000200060198A00A0A40200AF
:20E2800000000000E09E2800000F7800A0A028002007980040A12800100798000E007800EC
:20E2A000CEDA020000000000E00427004C190200010000000080FA00000006000400FA00C3
:20E2C000000F78001E007800100798009E009000E28F500007003200500920009E009000A3
:20E2E000808F500001003200030037000400070001003700350907000080FA00000006004A
:20E300000000FA00A000200060198A00400020000E1802000100000000092000FC2102006F
:20E32000010000000080FA00000006000600FA00000F78001E0078006101B800E0FF2F0017
:20E34000F1FF2F000201400083814800120798002307980020092000010020001E01900083
:20E36000AE019000800F5100818F5900B4003E001E009000AE009000006001009E00370001
:20E380009D003700AE003700AD003700AC003700AB003700AA003700A9003700A80037007B
:20E3A00095003700940037009300370092003700A3003700A20037008F0037008E003700F5
:20E3C0009F0037009E0037009D0037008A0037009B003700880037009900370086003700DF
:20E3E0008500370084003700830037008200370093003700920037007F0037007E00370035
:20E400007D0037008E0037008D0037008C0037008B0037008A0037008900370088003700FA
:20E420008700370086003700850037008400370083003700820037006F0037006E0037002C
:20E44000610037006C0037007D0037007C0037007B0037007A003700790037007800370058
:20E46000770037007600370075003700740037007300370072003700710037007000370048
:20E480006F0037006E0037006D0037006C0037006B0037006A003700690037006800370068
:20E4A000670037006600370065003700640037006300370062003700610037006000370088
:20E4C0005F0037005E0037005D0037005C0037005B0037005A0037005900370058003700A8
:20E4E0005700370056003700550037005400370053003700520037005100370050003700C8
:20E500004F0037004E0037004D0037004C0037004B0037004A0037004900370048003700E7
:20E52000470037004600370045003700440037004300370042003700410037004000370007
:20E540003F0037003E0037003D0037003C0037003B0037003A003700390037003800370027
:20E56000370037003600370035003700340037003300370032003700310037003000370047
:20E580002F0037002E0037002D0037002C0037002B0037002A003700290037002800370067
:20E5A0002700370026003700250037002400370023003700060037002100370020003700A3
:20E5C0000D003700060037005B0B07001C0037000000EB0032DB02000000000018003700B1
:20E5E000E418020001000000E14F500002003A00F300070012003700B4EE02000000000079
:20E60000100020000E1802000100000042FC07001E007800B9FE0700A0012000988A020023
:20E6200000000000C3D326000001EB00813E2000100020000801020001000000F0188A0085
:20E640000080FA0000000600AE00FA00B000200060198A00301982000000E00005003200DD
:20E6600030198200F0010200010000000000EB0030198A00E09E2800000F7800A0A0280088
:20E680002007980040A12800100798000E007800CEDA020000000000EEEE020000000000F5
:20E6A000200020000E180200010000001009200092FE07000080FA00000006000600FA00A1
:20E6C000000F78001E0078006101B800E0FF2F00F1FF2F0002014000838148001207980096
:20E6E0002307980020092000010020001E019000AE019000800F5100818F5900AE003E00CB
:20E700001E009000AE009000006001009800370097003700A8003700A7003700A600370075
:20E72000A5003700A4003700A3003700A20037008F0037008E0037008D0037008C0037005D
:20E740009D0037009C0037008900370088003700990037009800370097003700840037006B
:20E760009500370082003700930037009200370091003700900037008F0037008E00370067
:20E780008D0037008C003700790037007800370077003700880037008700370086003700AB
:20E7A0008500370084003700830037008200370081003700800037007F0037007E00370095
:20E7C0007D0037007C003700690037006800370079003700780037007700370076003700D9
:20E7E0007500370074003700730037007200370071003700700037006F0037006E003700D5
:20E800006D0037006C0037006B0037006A00370069003700680037006700370066003700F4
:20E820006500370064003700630037006200370061003700600037005F0037005E00370014
:20E840005D0037005C0037005B0037005A0037005900370058003700570037005600370034
:20E860005500370054003700530037005200370051003700500037004F0037004E00370054
:20E880004D0037004C00370039003700380037004900370048003700470037004600370098
:20E8A0004500370044003700430037004200370041003700400037003F0037003E00370094
:20E8C0003D0037003C0037003B0037003A00370039003700380037003700370036003700B4
:20E8E0003500370034003700330037003200370031003700300037002F0037002E003700D4
:20E900002D0037002C0037002B0037002A00370029003700280037002700370026003700F3
:20E920002500370024003700230037002200370021003700200037001F0037001E00370013
:20E940001D0037001C003700030037001A00370007003700040037001000200032DB0200CD
:20E9600000000000140037001500070012003700B4EE020000000000100020000E180200EB
:20E980000100000064FB07001E007800DBFD0700A0012000988A020000000000C3D32600FA
:20E9A0000001EB00813E2000100020000801020001000000F0188A000080FA00000006003E
:20E9C0000000FA00C000200060198A00F0002000988A020000000000A000200032DB020057
:20E9E000000000000080FA00000006000600FA00000F78001E0078006101B800E0FF2F0052
:20EA0000F1FF2F000201400083814800120798002307980010092000010020001E019000CC
:20EA2000AE019000800F5100818F5900C3003E001E009000AE00900000600100A700370022
:20EA400090003700BD003700BC003700BB003700BA003700B9003700B8003700B700370058
:20EA60009E003700970037009A00370093003700B2003700B100370094003700AE003700D7
:20EA8000AE003700AD003700AC003700A6003700AA003700A6003700A80037008F0037008A
:20EAA0008E0037008D003700A4003700A3003700A2003700A10037008800370087003700EA
:20EAC000860037009D0037009C0037009B0037009A003700990037009800370097003700C2
:20EAE0009600370095003700940037009300370092003700910037007800370077003700FA
:20EB00008E0037008D0037008C0037008B0037008A003700890037008800370087003700E9
:20EB2000860037008500370084003700830037008200370081003700800037007F00370009
:20EB40007E0037007D0037007C0037007B0037007A00370079003700780037007700370029
:20EB6000760037007500370074003700730037007200370071003700700037006F00370049
:20EB80006E0037006D0037006C0037006B0037006A00370069003700680037006700370069
:20EBA000660037006500370064003700630037006200370061003700600037005F00370089
:20EBC0005E0037005D0037005C0037005B0037005A003700590037005800370057003700A9
:20EBE000560037005500370054003700530037005200370051003700500037004F003700C9
:20EC00004E0037004D0037004C0037004B0037004A003700490037004800370047003700E8
:20EC2000460037004500370044003700430037004200370041003700400037003F00370008
:20EC40003E0037003D0037003C0037003B0037003A00370039003700380037003700370028
:20EC6000360037003500370034003700330037003200370031003700300037001700370060
:20EC80001600370080012000988A020000000000ACC8020000000000522002000100000077
:20ECA000522002000100000052200200010000005220020001000000200037003C0107005A
:20ECC0001E0037002A0007001C003700480207001A003700E604070018003700B4EE0200D5
:20ECE00000000000100020000E1802000100000089FA07001E00780000FD0700A0012000D6
:20ED0000988A020000000000C3D326000001EB00813E20001000200008010200010000000C
:20ED2000F0188A00050037003102070003003700CF040700010037007F0307000080FA007C
:20ED4000000006000000FA00D000200060198A00101A820080004000A03824000080400098
:20ED600010007800000001000080FA00000006000200FA000040EB00004F7800E00020009C
:20ED800060198A00C05D2000AC090700CE080200010000005133240010C0B3008048780033
:20EDA000101A8200E20F50000400320010C0B300004F7800000B0200010000004000200078
:20EDC000101A8A00400020007A0902000100000010C0B3009E4F100002003A000C0B0200C4
:20EDE00001000000E0332400104078008A0A02000100000080002000988A020000000000B8
:20EE0000FE08020001000000513324000040EB00804878000080FA00000006000600FA0056
:20EE2000000F78001E0078006101B800E0FF2F00F1FF2F000201400083814800120798002E
:20EE40002307980020092000010020001E019000AE019000800F5100818F5900D2003E003F
:20EE60001E009000AE00900000600100B4003700B5003700CC003700CB003700CA00370068
:20EE8000C9003700C8003700C7003700C6003700A3003700C4003700A5003700A2003700EE
:20EEA000C1003700C0003700A30037009A003700BD003700BC003700B80037009400370017
:20EEC000B900370090003700B7003700B6003700B5003700B4003700B3003700B2003700F6
:20EEE000B1003700B00037007300370074003700AD003700AC003700AB003700AA00370064
:20EF0000A9003700A8003700A7003700A6003700A5003700A4003700A3003700A20037000D
:20EF2000A10037008E0037006700370072003700870037009C0037009B0037009A003700B9
:20EF400099003700980037009700370096003700950037009400370093003700920037004D
:20EF600091003700900037008F0037008E0037008D0037008C0037008B0037008A0037006D
:20EF800089003700880037008700370086003700850037008400370083003700820037008D
:20EFA00081003700800037007F0037007E0037007D0037007C0037007B0037007A003700AD
:20EFC0007900370078003700770037007600370075003700740037007300370072003700CD
:20EFE000710037005C0037006F0037006E0037006D0037006C0037006B0037006A00370001
:20F0000069003700680037006700370066003700650037006400370063003700620037000C
:20F0200061003700600037005F0037005E0037005D0037005C0037005B0037005A0037002C
:20F0400059003700580037005700370056003700550037005400370053003700520037004C
:20F0600051003700500037004F0037004E0037004D0037004C0037004B0037004A0037006C
:20F0800049003700480037004700370046003700450037004400370043003700420037008C
:20F0A00041003700400037003F0037003E0037003D00370035003700DAFA07003A0037004A
:20F0C00076FA070038003700820F0200010000000004E00004003A000000EB00E20F0200B6
:20F0E000010000003000370010002000E20F0200010000002C003700300020001CEB0200C8
:20F100000000000028003700D90307002600370037010700240037008702070022003700CD
:20F1200008FF070020003700210007001E003700CF0307001C0037002D0107001A0037003B
:20F14000A205070018003700830607001600370079080700140037003BFD0700120037007A
:20F16000301982000000E0000F003A00039E28001200200041012000100020000801020003
:20F180000100000030198A0007003700B000200032DB0200000000000300370080002000A4
:20F1A000988A0200000000000080FA00000006000200FA000040EB00004F7800F0002000AD
:20F1C00060198A00C05D20009C080700CE080200010000005133240010C0B3008048780000
:20F1E00050002000988A020000000000101A8200E20F50000400320010C0B300004F78000E
:20F20000000B02000100000050002000101A8A00500020007A0902000100000010C0B30043
:20F220009E4F100002003A000C0B02000100000080322400104078000004E00005003200C2
:20F24000FE08020001000000513324000040EB00804878000080FA00000006000600FA0012
:20F26000000F78001E0078006101B800E0FF2F00F1FF2F00020140008381480012079800EA
:20F280002307980020092000010020001E019000AE019000800F5100818F5900D2003E00FB
:20F2A0001E009000AE00900000600100B6003700B7003700CC003700CB003700CA00370020
:20F2C000C9003700C8003700C7003700C60037009F003700A2003700A5003700A8003700CA
:20F2E000C0003700BF003700A30037009E003700BD003700BC003700BA00370096003700CD
:20F30000B900370090003700B7003700B6003700B5003700B4003700B3003700B2003700B1
:20F32000B1003700B00037007300370074003700AD003700AC003700AB003700AA0037001F
:20F34000A9003700A8003700A7003700A6003700A5003700A4003700A3003700A2003700C9
:20F36000A1003700900037006700370072003700890037009C0037009B0037009A00370071
:20F38000990037009800370097003700960037009500370094003700930037009200370009
:20F3A00091003700900037008F0037008E0037008D0037008C0037008B0037008A00370029
:20F3C000890037008800370087003700860037008500370084003700830037008200370049
:20F3E00081003700800037007F0037007E0037007D0037007C0037007B0037007A00370069
:20F40000790037007800370077003700760037007500370074003700730037007200370088
:20F42000710037005E0037006F0037006E0037006D0037006C0037006B0037006A003700BA
:20F440006900370068003700670037006600370065003700640037006300370062003700C8
:20F4600061003700600037005F0037005E0037005D0037005C0037005B0037005A003700E8
:20F48000590037005800370057003700560037005500370054003700530037005200370008
:20F4A00051003700500037004F0037004E0037004D0037004C0037004B0037004A00370028
:20F4C000490037004800370047003700460037004500370044003700430037004200370048
:20F4E00041003700400037003F0037003E0037003D00370037003700CAF907003A00370015
:20F5000066F9070038003700820F0200010000000004E00004003A000000EB00E20F020082
:20F52000010000003000370010002000E20F0200010000002C003700300020001CEB020083
:20F540000000000028003700C902070026003700FCFD07002400370025000700220037003D
:20F5600003FE070020003700730107001E003700BF0207001C0037001D0007001A003700CC
:20F58000BB02070018003700900407001600370071050700140037006707070012003700EA
:20F5A00029FC070010003700301982000000E0000D003A00039E2800120020004101200089
:20F5C00010002000080102000100000030198A0005003700B000200032DB02000000000001
:20F5E00001003700F2FE07000080FA00000006000000FA001001200060198A00C05D2000F1
:20F600008E070700CE080200010000005133240010C0B30080487800A0002000988A020026
:20F620000000000020002000101A8A00200020007A090200010000000080FA000000060090
:20F640000600FA00000F78001E0078006101B800E0FF2F00F1FF2F000201400083814800B7
:20F66000120798002307980020092000010020001E019000AE019000800F5100818F590076
:20F680002B013E001E009000AE00900000600100EF003700F80037002501370024013700A5
:20F6A000230137002201370021013700200137001F013700DA003700DD003700E000370051
:20F6C000DD0037001A01370019013700D6003700BD0037001601370015013700F2003700AE
:20F6E0001301370012013700D7003700100137007A00370080003700930037000C013700A9
:20F700000B0137000A01370009013700A2003700A7003700060137000501370004013700B5
:20F7200003013700020137000101370000013700FF003700FE003700FD003700FC00370011
:20F74000FB003700FA003700ED003700A4003700AF003700D2003700F5003700F400370001
:20F76000F3003700F2003700F1003700F0003700EF003700EE003700ED003700EC00370055
:20F78000EB003700EA003700E9003700E8003700E7003700E6003700E5003700E400370075
:20F7A000E3003700E2003700E1003700E0003700DF003700DE003700DD003700DC00370095
:20F7C000DB003700DA003700D9003700D8003700D7003700D6003700D5003700D4003700B5
:20F7E000D3003700D2003700D1003700D0003700CF003700CE003700CD003700CC003700D5
:20F80000CB003700CA003700C8003700C8003700C7003700C6003700C5003700C4003700F5
:20F82000C3003700C2003700C1003700C0003700BF003700BE003700BD003700BC00370014
:20F84000BB003700BA003700B9003700B8003700B7003700B6003700B5003700B400370034
:20F86000B3003700B2003700B1003700B0003700AF003700AE003700AD003700AC00370054
:20F88000AB003700AA003700A9003700A8003700A7003700A6003700A5003700A400370074
:20F8A000A3003700A2003700A1003700A00037009F0037009E0037009D0037009C00370094
:20F8C0009B0037009A0037009900370098003700970037007C00370077003700300B20005C
:20F8E000E2C50200000000000040EB005AA70200000000008E0037002E0B02000100000030
:20F900000004E0008A003200CE080200010000005033240011C0B30001487800100B200047
:20F92000E2C5020000000000C3D326000001EB00419C20001000200008010200010000003D
:20F94000F0188A007A0037002E0B0200010000000004E00076003200CE08020001000000C3
:20F960005033240011C0B30001487800000B2000E2C5020000000000C3D326000001EB001F
:20F98000813E2000100020000801020001000000F0188A00660037002E0B020001000000E1
:20F9A0000004E000620032009EF80700600037002E0B0200010000000004E0005C003200ED
:20F9C00036F807005A003700DC0A0200010000000004E00056003A0057000700540037001B
:20F9E000820F0200010000000004E00004003A000000EB00E20F0200010000004C003700EF
:20FA000010002000E20F02000100000048003700300020001CEB020000000000440037006F
:20FA2000C8FC0700420037004300070040003700CFFC07003E003700DDFD07003C00370026
:20FA40008B0107003A003700890107003800370020332400104078000004E0000400320049
:20FA600010C0B30010DB02000000000030003700560307002E0037002033240010407800AB
:20FA80000004E0000400320010C0B30010DB020000000000260037002F04070024003700EA
:20FAA0002506070022003700A0002000988A0200000000001E003700B000200032DB0200A3
:20FAC000000000001A003700B4EE020000000000100020000E180200010000000EF70700CC
:20FAE000C3D326000001EB00813E2000100020000801020001000000F0188A000C0037006E
:20FB0000301982000000E00009003A00039E2800120020004101200010002000080102005F
:20FB20000100000030198A0001003700C6FA07000080FA00000006000200FA000040EB004B
:20FB4000004F78002001200060198A00C05D20003A060700CE080200010000005133240095
:20FB600010C0B3008048780090002000988A020000000000101A8200E20F500004003200CB
:20FB800010C0B300004F7800000B02000100000010002000101A8A00100020007A09020074
:20FBA0000100000010C0B3009E4F100002003A000C0B0200010000000080FA0000000600EE
:20FBC0000600FA00000F78001E0078006101B800E0FF2F00F1FF2F00020140008381480032
:20FBE000120798002307980020092000010020001E019000AE019000800F5100818F5900F1
:20FC000019013E001E009000AE00900000600100E3003700EC00370013013700120137006D
:20FC200011013700100137000F0137000E0137000D01370005013700060137000A013700A4
:20FC400006013700080137000701370005013700D10037000401370003013700E60037000E
:20FC6000C900370000013700C9003700FE0037007A0037008000370093003700FA003700B4
:20FC8000F9003700F8003700F7003700A2003700A7003700F4003700F3003700F2003700A2
:20FCA000F1003700F0003700EF003700EE003700ED003700EC003700EB003700EA00370020
:20FCC000E9003700E8003700D50037009E003700A9003700C6003700E3003700E2003700F4
:20FCE000E1003700E0003700DF003700DE003700DD003700DC003700DB003700DA00370060
:20FD0000D9003700D8003700D7003700D6003700D5003700D4003700D3003700D20037007F
:20FD2000D1003700D0003700CF003700CE003700CD003700CC003700CB003700CA0037009F
:20FD4000C9003700C8003700C7003700C6003700C5003700C4003700C3003700C2003700BF
:20FD6000C1003700C0003700BF003700BE003700BD003700BC003700BB003700BA003700DF
:20FD8000B9003700B8003700A3003700B6003700B5003700B4003700B3003700B200370013
:20FDA000B1003700B0003700AF003700AE003700AD003700AC003700AB003700AA0037001F
:20FDC000A9003700A8003700A7003700A6003700A5003700A4003700A3003700A20037003F
:20FDE000A1003700A00037009F0037009E0037009D0037009C0037009B0037009A0037005F
:20FE000099003700980037009700370096003700950037009400370093003700920037007E
:20FE200091003700900037008F0037008E0037008D0037008C0037008B0037008A0037009E
:20FE40008900370088003700870037008600370085003700840037006B003700300B200034
:20FE6000E2C50200000000000040EB005AA70200000000007C003700E613020001000000FC
:20FE80000004E00078003200CE080200010000005033240011C0B30001487800100B2000D4
:20FEA000E2C5020000000000C3D326000001EB00419C2000100020000801020001000000B8
:20FEC000F0188A0068003700E6130200010000000004E00064003200CE08020001000000A2
:20FEE0005033240011C0B30001487800000B2000E2C5020000000000C3D326000001EB009A
:20FF0000813E2000100020000801020001000000F0188A0054003700E613020001000000AD
:20FF20000004E000500032003EF707004E003700E6130200010000000004E0004A0032003E
:20FF4000D6F6070048003700820F0200010000000004E00004003A000000EB00E20F0200BB
:20FF6000010000004000370010002000E20F0200010000003C003700300020001CEB020019
:20FF8000000000003800370099FD0700360037003700070034003700E7FE070032003700EA
:20FFA00020332400104078000004E0000400320010C0B30010DB0200000000002A00370017
:20FFC000020207002800370020332400104078000004E0000400320010C0B30010DB0200EE
:20FFE0000000000020003700DB0207001E003700D10407001C00370090002000988A02006E
:020000040001F9
:200000000000000018003700B000200032DB020000000000140037008BF907001200370093
:20002000301982000000E0000F003A00039E28001200200041012000100020000801020034
:200040000100000030198A00070037003DFB07000500370046FB07000300370054FC07003A
:200060000100370062FD07000080FA00000006000200FA000040EB00004F78000001200053
:2000800060198A00007D2000EC040700CE080200010000005133240010C0B3008048780085
:2000A00070002000988A020000000000101A8200E20F50000400320010C0B300004F78001F
:2000C000000B02000100000030002000101A8A00300020007A0902000100000010C0B300B5
:2000E0009E4F100002003A000C0B020001000000402982000000E0000300320040298200C2
:20010000F001020001000000E3A5280012002000310020001000200008010200010000007C
:2001200040298A000080FA00000006000200FA00000F7800202982000000E00010003A00D4
:200140009CE70200000000000000E0000C003A001CCA02000000000010002000A4E702004F
:200160000000000063A428000001EB009E00780010002000080102000100000020298A003F
:200180000080FA00000006000200FA009CE7020000000000000F78001E007800E20F500000
:2001A000040032001E007800E40F5000070032000900370020298200F001020001000000F8
:2001C0000000EB0020298A0003003700400C2000E2C50200000000000000EB00A4E702009A
:2001E00000000000402982000000E0000300320040298200F001020001000000E3A5280070
:20020000120020003100200010002000080102000100000040298A000080FA0000000600AC
:200220000600FA00000F78001E0078006101B800E0FF2F00F1FF2F000201400083814800CB
:20024000120798002307980020092000010020001E019000AE019000800F5100818F59008A
:2002600058013E001E009000AE009000006001003A0137003B0137005201370051013700A2
:20028000500137004F0137004E0137004D0137004C013700010137000401370049013700CA
:2002A00004013700470137004601370003013700FC00370043013700420137003E0137002C
:2002C000000137000D013700000137003D0137007A0037007F00370096003700AD003700DC
:2002E000B4003700BB003700BA003700C1003700C200370033013700320137003101370001
:20030000300137002F0137002E0137002D0137002C0137002B0137002A01370029013700B9
:20032000280137002701370018013700B5003700CB0037000D0137002201370021013700C8
:20034000200137001F0137001E0137001D0137001C0137001B0137001A01370019013700F9
:20036000180137001701370016013700150137001401370013013700120137001101370019
:20038000100137000F0137000E0137000D0137000C0137000B0137000A0137000901370039
:2003A000080137000701370006013700050137000401370003013700020137000101370059
:2003C00000013700FF003700FE003700FD003700FC003700FB003700FA003700F900370080
:2003E000F8003700F7003700E6003700F5003700D0003700F3003700F2003700F1003700D5
:20040000F0003700EF003700EE003700ED003700EC003700EB003700EA003700E9003700C0
:20042000E8003700E7003700E6003700E5003700E4003700E3003700E2003700E1003700E0
:20044000E0003700DF003700DE003700DD003700DC003700DB003700DA003700D900370000
:20046000D8003700D7003700D6003700D5003700D4003700D3003700D2003700D100370020
:20048000D0003700CF003700CE003700CD003700CC003700CB003700CA003700C900370040
:2004A000C8003700C7003700C6003700C5003700C4003700C3003700AE003700401F2000ED
:2004C0001AFF0700300B2000E2C5020000000000BC003700C8E70200000000000004E00070
:2004E000B8003200C05D2000D4030700CE080200010000005033240011C0B3000148780032
:20050000100B2000E2C5020000000000C3D326000001EB00813E2000100020000801020035
:2005200001000000F0188A005220020001000000A4003700C8E70200000000000004E00043
:20054000A0003200C05D2000BC030700CE080200010000005033240011C0B3000148780001
:20056000000B2000E2C5020000000000C3D326000001EB00813E20001000200008010200E5
:2005800001000000F0188A0052200200010000008C003700C8E70200000000000004E000FB
:2005A00088003200200C2000E2C502000000000084003700C8E70200000000000004E0003C
:2005C00080003200100C2000E2C50200000000007C003700C8E70200000000000004E0003C
:2005E00078003200300C2000E2C5020000000000740037008BF507007200370027F507004E
:2006000070003700D4E70200000000000004E00007003200ECE70200000000000004E000A0
:2006200003003200300B2000E2C5020000000000820F0200010000000004E00004003A00CB
:200640000000EB00E20F0200010000005D00370010002000E20F0200010000005900370073
:20066000D4E70200000000000004E00007003200ECE70200000000000004E00003003200B2
:20068000300B2000E2C5020000000000300020001CEB0200000000004A003700A9F90700D3
:2006A0004800370024FD070046003700B0F9070044003700BEFA070042003700CCFB0700E5
:2006C00040003700CAFB07003E003700C8E70200000000000004E0003A003A0030332400D2
:2006E000104078000004E00036003200300B2000E2C50200000000003200370030332400F2
:20070000104078000004E0002E003200ECE70200000000000004E0002A003A003E20020050
:2007200001000000300B2000E2C50200000000002400370030332400104078000004E00026
:20074000200032003E20020001000000300B2000E2C50200000000001A0037001B0007006F
:2007600018003700FC00070016003700F202070014003700B000200032DB020000000000B5
:2007800010003700B0F707000E003700301982000000E0000B003A00039E28001200200034
:2007A0004101200010002000080102000100000030198A000300370070002000988A0200DA
:2007C000000000000080FA00000006000000FA000000EB0060198A00305424001040780041
:2007E0000004E000050032008E0F020001000000804078007033240001487800340902003F
:2008000001000000CE080200010000005033240011C0B300014878003E20020001000000B1
:2008200060012000988A0200000000002E0B0200010000000004E0000A00320086CA020065
:200840000000000043D02600120020002100200010002000080102000100000010198A00FD
:2008600038003700C8E70200000000000004E0001F003200ECE70200000000000004E0006A
:2008800005003200300B2000E2C50200000000003E20020001000000DAB40200000000002C
:2008A000E34F50000A003A0086CA02000000000043D0260012002000210020001000200044
:2008C000080102000100000010198A001D003700303324008040EB00014878000000EB0027
:2008E000E0198A00A40202000100000015003700DAB4020000000000E34F50000A003A002A
:2009000086CA02000000000043D0260012002000210020001000200008010200010000009D
:2009200010198A0007003700303324008040EB00014878000000EB00E0198A00A4020200BD
:20094000010000000080FA00000006000400FA00000F78001E007800100798001E0090009E
:20096000E50F5000090032001E009000F70F50000E0032001E009000E10F50000100320093
:20098000130037001400070011003700303324008040EB00014878000000EB00E0198A0049
:2009A000A4020200010000000900370086CA02000000000043D02600120020002100200050
:2009C00010002000080102000100000010198A000080FA00000006000000FA00100020007E
:2009E00060198A0010002000E0198A005EF502000000000050012000988A02000000000057
:200A0000A00020008C0002000100000052200200010000006008020001000000CE080200CF
:200A2000010000005133240010C0B300804878005220020001000000522002000100000060
:200A4000D2A7020000000000C9E2A900000000000000000000000000CBE2A900E000200071
:200A6000988A02000000000063CF260012002000C1002000100020000801020001000000AB
:200A800020198A000080FA00000006000400FA00000F78001E007800100798001E0090009B
:200AA000E20F5000060032001E009000E40F5000010032000300370004000700010037001C
:200AC00042FF07000080FA00000006000000FA002000200060198A00B13224000040EB00DF
:200AE00080487800E0332400104078008A0A0200010000000040EB005AA7020000000000F2
:200B000005F3070010C0B3009017020001000000D2FA02000000000083CE26001200200032
:200B20005100200010002000080102000100000000198A0003A72800120020003100200010
:200B400020002000080102000100000060298A000080FA00000006000000FA00300020006C
:200B600060198A00007D20003402070070012000988A020000000000000B020001000000D5
:200B80000000EB007A09020001000000301982000000E0000500320030198200F001020044
:200BA000010000000000EB0030198A0020002000E0198A0020002000E2110200010000007D
:200BC000E3D226001200200041012000100020000801020001000000E0188A000080FA006E
:200BE000000006000600FA00000F78001E0078006101B8000080EB008080EB00020140001F
:200C000083814800120798002307980010032000010020001E019000AE019000800F5100F3
:200C2000818F59005A003E001E009000AE00900000600100560037005500370054003700C2
:200C400053003700520037003A0037003B0037003A0037004E003700320037004C003700BC
:200C60002B0037002A00370029003700480037004700370026003700250037004400370020
:200C800043003700420037001C003700400037003F0037003E0037003D0037003C003700C5
:200CA0003B0037003A003700390037003800370037003700360037003500370034003700C0
:200CC000330037003200370031003700300037002F0037002E0037002D0037002C003700E0
:200CE0002B0037002A00370029003700280037002700370026003700250037009E00780045
:200D000071198A003AFA0700F4000700200037001E01780072198A0087FB0700EF00070007
:200D20001B0037000C0B020001000000A7FE0700170037001800070015003700E018820068
:200D40000000E00005003200E0188200F0010200010000000000EB00E0188A001000200071
:200D6000E0198A00F0012000988A02000000000069F20700C3D326000001EB00813E2000D2
:200D8000100020000801020001000000F0188A000080FA00000006000000FA0040002000AB
:200DA00060198A0000022000988A020000000000E01882000000E00005003200E0188200DF
:200DC000F0010200010000000000EB00E0188A000C0B020001000000C208020001000000CB
:200DE0000080FA00000006000A00FA00100798001E0090006101B8000080EB008080EB00A2
:200E00000201400083814800220798003307980020062000010020002E019000BE0190003B
:200E2000800F5100818F5900A1003E002E009000BE009000006001006200370061003700EC
:200E40009A0037009A0037009900370098003700970037005F003700950037009400370056
:200E6000580037005700370056003700550037008F0037008E0037005200370051003700A0
:200E80008B0037008A003700890037004D00370087003700860037008500370049003700D4
:200EA000480037004700370046003700450037007F0037007E0037004200370041003700E0
:200EC000400037007A003700790037007800370077003700760037007500370074003700D9
:200EE000730037007200370071003700700037006F0037006E003700320037003100370034
:200F00006B0037006A003700690037006800370067003700660037006500370064003700DD
:200F2000630037006200370061003700600037005F0037005E0037005D0037005C003700FD
:200F40005B0037005A0037005900370058003700570037005600370055003700540037001D
:200F6000530037005200370051003700500037004F0037004E0037004D0037004C0037003D
:200F80004B0037004A0037004900370048003700470037004600370045003700440037005D
:200FA000430037004200370041003700400037003F0037003E0037003D00370001003700B8
:200FC000000037009E00900071198A0043000700370037001E01900072198A00C00120003B
:200FE000988A02000000000010002000E0198A00131A8200030F78000000EB00101A8A0042
:201000001E00780040079800CE009000E28F5000150032004E019000E20F510007003E008F
:20102000CE0190000300E0000B0032004E009000E10F50000A00320011003700CE00900031
:20104000E38F50000A0032004E019000E50F5100090032000A00370045F70700090037006F
:20106000B5FA07000700370061F9070005003700FFFB0700030037004DF807000100370020
:201080003BF707000C0B020001000000C3D326000001EB00411F200010002000080102009A
:2010A00001000000F0188A0001003700C7FD07000080FA00000006000200FA00000F780097
:2010C0001E007800E80F50000100320001003700A1FE07000080FA00000006000000FA00A8
:2010E0006000200060198A0050002000E211020001000000E0012000988A020000000000E2
:20110000E3D226001200200041012000100020000801020001000000E0188A000080FA0028
:20112000000006000400FA00000F78001E007800100798001E009000E90F50002A0032008D
:201140001E009000E90F500004003E001E009000E80F50000C0032003A0037001E00900005
:20116000EA0F5000040032001E009000F60F50001F003200330037000C0B02000100000018
:2011800092FD07002F003700E01882000000E00005003200E0188200F00102000100000054
:2011A0000000EB00E0188A00C0012000988A02000000000010002000E0198A0056F10700BC
:2011C0000C0B020001000000C3D326000001EB00411F200010002000080102000100000091
:2011E000F0188A0017003700EBFE070015003700E01882000000E00005003200E0188200C8
:20120000F0010200010000000000EB00E0188A00C0012000988A0200000000001000200038
:20122000E0198A00F2F80700C3D326000001EB00411F2000100020000801020001000000D6
:20124000F0188A000080FA00000006000000FA0091178000F0DF2F0000806000901788004D
:20126000F0FF2000B00C880030002000A239020000000000E062A800000000000000000004
:201280000000000000000000E262A800000000000000000000000000000000000000000062
:2012A000E0C2A80000000000000000000000000000000000E2C2A800000000000000000098
:2012C000000000000000000000000000E062A8000000000000000000000000000000000024
:2012E000E262A8000000000000000000000000000000000000000000E002A8000000000078
:20130000000000000000000000000000E202A8000000000000000000000000000000000041
:2013200000000000101780000040A000101788000080FA00000006000000FA00700020006D
:2013400060198A00C1FF0700820F0200010000000004E0000A003200E2C402000000000067
:20136000522002000100000052200200010000005220020001000000522002000100000099
:201380000000EB00101A8A000000EB007A09020001000000101A820081032000A4A10200A6
:2013A00000000000B8B5020000000000DA22A80052200200010000000000FE00FFFF370072
:2013C0000200FA00000F7800A132240010C0B300804878000080FA00000006000000FA0056
:2013E00060198200EC0F50000600320060198200EA0F50000300320060198200EB0F5000B1
:2014000002003A00300920003CF307000080FA00000006000000FA002009200037F307000D
:201420000080FA00000006000000FA004009200032F307000080FA00000006000200FA0021
:20144000000F78003409020001000000002982000000E00008003A00E3A728000001EB005A
:201460009E00780010002000080102000100000000298A000300370000298200BE010200C1
:20148000010000000080FA00000006000200FA00000F78006052240011C0B300014878002D
:2014A0000000EB0020298A0040002000A4E70200000000000080FA00000006000200FA0005
:2014C000000F7800A052240011C0B300014878000000EB0040298A000080FA0000000600CC
:2014E0000200FA00000F7800E152240010C0B300804878000080FA00000006000200FA00D3
:20150000000F78002052240011C0B300014878000000EB0000298A000080FA00000006004B
:201520000000FA00ED0407000080FA00000006000600FA00000F7800A03082006101B80046
:20154000120798002307980040012000010020001E019000AE019000800F5100818F59005F
:2015600050003E001E009000AE00900000600100380037003D003700390037003E003700C8
:201580004000370042003700110037001300370015003700170037000A003700180037009F
:2015A0001A0037001C0037001E0037002000370022003700240037003A0037003900370046
:2015C000360037001E00780041000700350037001E00780095000700320037001E00780023
:2015E000DD0107002F0037001E007800F90007002C0037001E0078009E010700290037000B
:201600001E0078002C020700260037001E007800A5020700230037001E00780068040700FB
:20162000200037001E007800410107001D0037001E007800780607001A0037001E0078001E
:201640003B030700170037001E007800DE030700140037001E007800DD0407001100370068
:201660001E0078002E0507000E0037001E007800810507000B0037001E007800F00507005E
:20168000080037001E0078000D060700050037001E00780036060700020037001E00780077
:2016A000A50607000080FA00000006000000FA00A0002000A0308A00410020000000EB0098
:2016C000FCD50200000000000080FA00000006000600FA00000F78001E0078006101B80080
:2016E000120798002307980070012000010020001E019000AE019000800F5100818F59008E
:2017000032003E001E009000AE009000006001002E0037002D003700170037002A00370094
:201720001700370024003700230037001A003700150037002200370015003700230037000A
:201740000B0037002100370020003700180037001E0037001D0037001C0037001B003700FB
:201760001A003700190037000D0037000E00370037010700150037009A01070013003700C8
:201780009801070011003700960107000F0037008A0207000D003700D40307000B00370086
:2017A000A00407000900370069050700070037000E060700050037000602070003003700EB
:2017C0002403070001003700860107000080FA00000006000000FA0060002000A0308A00C1
:2017E0008E0F0200010000000004E0000900320030542400104078000004E000050032009F
:20180000410020000000EB00FCD502000000000004003700310020000000EB00FCD502005F
:20182000000000000080FA00000006000600FA00000F78001E0078006101B8001207980040
:201840002307980070012000010020001E019000AE019000800F5100818F59003C003E0063
:201860001E009000AE009000006001001B0037001C0037002100370034003700210037005B
:201880002E0037002D003700240037001F0037002C0037001F00370014003700150037007E
:2018A0000C003700090037002200370028003700270037002600370025003700240037007B
:2018C000230037001700370018003700C1FF07001F00370075FF07001D0037001501070008
:2018E0001B0037001C000700190037007A00070017003700D60007001500370039010700EA
:20190000130037003701070011003700350107000F003700290207000D0037007303070080
:201920000B0037003F040700090037000805070007003700AD05070005003700A5010700E7
:2019400003003700C302070001003700250107000080FA00000006000000FA008000200002
:20196000A0308A0070002000A239020000000000415E240010C0B300B0409800415E24000F
:2019800030002000800878008E0F0200010000000004E000090032003054240010407800C8
